{"abi":[{"type":"constructor","inputs":[{"name":"admin","type":"address","internalType":"address"},{"name":"oracle","type":"address","internalType":"address"}],"stateMutability":"nonpayable"},{"type":"receive","stateMutability":"payable"},{"type":"function","name":"ADMIN_ROLE","inputs":[],"outputs":[{"name":"","type":"bytes32","internalType":"bytes32"}],"stateMutability":"view"},{"type":"function","name":"DEFAULT_ADMIN_ROLE","inputs":[],"outputs":[{"name":"","type":"bytes32","internalType":"bytes32"}],"stateMutability":"view"},{"type":"function","name":"ORACLE_ROLE","inputs":[],"outputs":[{"name":"","type":"bytes32","internalType":"bytes32"}],"stateMutability":"view"},{"type":"function","name":"claimWinnings","inputs":[{"name":"_marketId","type":"uint256","internalType":"uint256"}],"outputs":[],"stateMutability":"nonpayable"},{"type":"function","name":"createMarket","inputs":[{"name":"_question","type":"string","internalType":"string"},{"name":"_description","type":"string","internalType":"string"},{"name":"_imageUri","type":"string","internalType":"string"},{"name":"_endTime","type":"uint256","internalType":"uint256"}],"outputs":[],"stateMutability":"nonpayable"},{"type":"function","name":"getMarket","inputs":[{"name":"_marketId","type":"uint256","internalType":"uint256"}],"outputs":[{"name":"","type":"string","internalType":"string"},{"name":"","type":"string","internalType":"string"},{"name":"","type":"uint256","internalType":"uint256"},{"name":"","type":"uint8","internalType":"enum PredictionMarket.MarketOutcome"},{"name":"","type":"uint256","internalType":"uint256"},{"name":"","type":"uint256","internalType":"uint256"},{"name":"","type":"uint256","internalType":"uint256"},{"name":"","type":"bool","internalType":"bool"},{"name":"","type":"bool","internalType":"bool"}],"stateMutability":"view"},{"type":"function","name":"getMarketsCount","inputs":[],"outputs":[{"name":"","type":"uint256","internalType":"uint256"}],"stateMutability":"view"},{"type":"function","name":"getMarketsPaginated","inputs":[{"name":"start","type":"uint256","internalType":"uint256"},{"name":"limit","type":"uint256","internalType":"uint256"}],"outputs":[{"name":"ids","type":"uint256[]","internalType":"uint256[]"},{"name":"questions","type":"string[]","internalType":"string[]"},{"name":"descriptions","type":"string[]","internalType":"string[]"},{"name":"imageUris","type":"string[]","internalType":"string[]"},{"name":"endTimes","type":"uint256[]","internalType":"uint256[]"},{"name":"outcomes","type":"uint8[]","internalType":"enum PredictionMarket.MarketOutcome[]"},{"name":"totalYes","type":"uint256[]","internalType":"uint256[]"},{"name":"totalNo","type":"uint256[]","internalType":"uint256[]"},{"name":"totalPool","type":"uint256[]","internalType":"uint256[]"},{"name":"resolved","type":"bool[]","internalType":"bool[]"},{"name":"refunded","type":"bool[]","internalType":"bool[]"}],"stateMutability":"view"},{"type":"function","name":"getRoleAdmin","inputs":[{"name":"role","type":"bytes32","internalType":"bytes32"}],"outputs":[{"name":"","type":"bytes32","internalType":"bytes32"}],"stateMutability":"view"},{"type":"function","name":"getUserBets","inputs":[{"name":"_marketId","type":"uint256","internalType":"uint256"},{"name":"_user","type":"address","internalType":"address"}],"outputs":[{"name":"betYes","type":"uint256","internalType":"uint256"},{"name":"betNo","type":"uint256","internalType":"uint256"}],"stateMutability":"view"},{"type":"function","name":"grantRole","inputs":[{"name":"role","type":"bytes32","internalType":"bytes32"},{"name":"account","type":"address","internalType":"address"}],"outputs":[],"stateMutability":"nonpayable"},{"type":"function","name":"hasRole","inputs":[{"name":"role","type":"bytes32","internalType":"bytes32"},{"name":"account","type":"address","internalType":"address"}],"outputs":[{"name":"","type":"bool","internalType":"bool"}],"stateMutability":"view"},{"type":"function","name":"makeBet","inputs":[{"name":"_marketId","type":"uint256","internalType":"uint256"},{"name":"yes","type":"bool","internalType":"bool"}],"outputs":[],"stateMutability":"payable"},{"type":"function","name":"marketId","inputs":[],"outputs":[{"name":"","type":"uint256","internalType":"uint256"}],"stateMutability":"view"},{"type":"function","name":"renounceRole","inputs":[{"name":"role","type":"bytes32","internalType":"bytes32"},{"name":"callerConfirmation","type":"address","internalType":"address"}],"outputs":[],"stateMutability":"nonpayable"},{"type":"function","name":"resolveMarket","inputs":[{"name":"_marketId","type":"uint256","internalType":"uint256"},{"name":"outcomeYes","type":"bool","internalType":"bool"}],"outputs":[],"stateMutability":"nonpayable"},{"type":"function","name":"revokeRole","inputs":[{"name":"role","type":"bytes32","internalType":"bytes32"},{"name":"account","type":"address","internalType":"address"}],"outputs":[],"stateMutability":"nonpayable"},{"type":"function","name":"supportsInterface","inputs":[{"name":"interfaceId","type":"bytes4","internalType":"bytes4"}],"outputs":[{"name":"","type":"bool","internalType":"bool"}],"stateMutability":"view"},{"type":"event","name":"BetPlaced","inputs":[{"name":"id","type":"uint256","indexed":true,"internalType":"uint256"},{"name":"user","type":"address","indexed":true,"internalType":"address"},{"name":"yes","type":"bool","indexed":false,"internalType":"bool"},{"name":"amount","type":"uint256","indexed":false,"internalType":"uint256"}],"anonymous":false},{"type":"event","name":"Claimed","inputs":[{"name":"id","type":"uint256","indexed":true,"internalType":"uint256"},{"name":"user","type":"address","indexed":true,"internalType":"address"},{"name":"amount","type":"uint256","indexed":false,"internalType":"uint256"}],"anonymous":false},{"type":"event","name":"MarketCreated","inputs":[{"name":"id","type":"uint256","indexed":true,"internalType":"uint256"},{"name":"question","type":"string","indexed":false,"internalType":"string"},{"name":"endTime","type":"uint256","indexed":false,"internalType":"uint256"}],"anonymous":false},{"type":"event","name":"MarketResolved","inputs":[{"name":"id","type":"uint256","indexed":true,"internalType":"uint256"},{"name":"outcome","type":"uint8","indexed":false,"internalType":"enum PredictionMarket.MarketOutcome"}],"anonymous":false},{"type":"event","name":"Refunded","inputs":[{"name":"id","type":"uint256","indexed":true,"internalType":"uint256"}],"anonymous":false},{"type":"event","name":"RoleAdminChanged","inputs":[{"name":"role","type":"bytes32","indexed":true,"internalType":"bytes32"},{"name":"previousAdminRole","type":"bytes32","indexed":true,"internalType":"bytes32"},{"name":"newAdminRole","type":"bytes32","indexed":true,"internalType":"bytes32"}],"anonymous":false},{"type":"event","name":"RoleGranted","inputs":[{"name":"role","type":"bytes32","indexed":true,"internalType":"bytes32"},{"name":"account","type":"address","indexed":true,"internalType":"address"},{"name":"sender","type":"address","indexed":true,"internalType":"address"}],"anonymous":false},{"type":"event","name":"RoleRevoked","inputs":[{"name":"role","type":"bytes32","indexed":true,"internalType":"bytes32"},{"name":"account","type":"address","indexed":true,"internalType":"address"},{"name":"sender","type":"address","indexed":true,"internalType":"address"}],"anonymous":false},{"type":"error","name":"AccessControlBadConfirmation","inputs":[]},{"type":"error","name":"AccessControlUnauthorizedAccount","inputs":[{"name":"account","type":"address","internalType":"address"},{"name":"neededRole","type":"bytes32","internalType":"bytes32"}]},{"type":"error","name":"ReentrancyGuardReentrantCall","inputs":[]}],"bytecode":{"object":"0x6080604052346100305761001a610014610104565b906101a1565b610022610035565b6132ee6105f782396132ee90f35b61003b565b60405190565b5f80fd5b601f801991011690565b634e487b7160e01b5f52604160045260245ffd5b906100679061003f565b810190811060018060401b0382111761007f57604052565b610049565b90610097610090610035565b928361005d565b565b5f80fd5b60018060a01b031690565b6100b19061009d565b90565b6100bd816100a8565b036100c457565b5f80fd5b905051906100d5826100b4565b565b91906040838203126100ff57806100f36100fc925f86016100c8565b936020016100c8565b90565b610099565b6101226138e58038038061011781610084565b9283398101906100d7565b9091565b90565b90565b5f1b90565b61014561014061014a92610126565b61012c565b610129565b90565b6101565f610131565b90565b7fa49807205ce4d355092ef5a8a18f56e8913cf4a201fbe287825b095693c2177590565b7f68e79a7bf1e0bc45d0a330c573bc367f9cf464fd326078812f301165fbda4ef190565b906101d16101df926101b16101fb565b6101c36101bc61014d565b8290610397565b506101cc610159565b610397565b506101da61017d565b610397565b506101f96101eb61017d565b6101f3610159565b90610473565b565b610203610205565b565b61020d61020f565b565b610217610219565b565b610221610223565b565b61022b6102b4565b565b90565b90565b90565b61024a61024561024f9261022d565b610233565b610230565b90565b61025c6001610236565b90565b9061026b5f199161012c565b9181191691161790565b61028961028461028e92610230565b610233565b610230565b90565b90565b906102a96102a46102b092610275565b610291565b825461025f565b9055565b6102d66102bf610252565b5f6102d06102cb610539565b61054d565b01610294565b565b5f90565b151590565b6102ea90610129565b90565b906102f7906102e1565b5f5260205260405f2090565b61031761031261031c9261009d565b610233565b61009d565b90565b61032890610303565b90565b6103349061031f565b90565b906103419061032b565b5f5260205260405f2090565b9061035960ff9161012c565b9181191691161790565b61036c906102dc565b90565b90565b9061038761038261038e92610363565b61036f565b825461034d565b9055565b5f0190565b61039f6102d8565b506103b46103ae828490610577565b156102dc565b5f1461043c576103db60016103d65f6103ce8186906102ed565b018590610337565b610372565b906103e46105a4565b9061042161041b6104157f2f8788117e7eff1d82e926ec794901d17c78024a50270940304540a733656f0d956102e1565b9261032b565b9261032b565b9261042a610035565b8061043481610392565b0390a4600190565b50505f90565b5f1c90565b61045090610442565b90565b9061046861046361046f926102e1565b610447565b825461025f565b9055565b9061047d826105d5565b9161049582600161048f5f85906102ed565b01610453565b916104d26104cc6104c67fbd79b86ffe0ab8e8776151514217cd7cacd52c909f66475c3af44e129f0b00ff956102e1565b926102e1565b926102e1565b926104db610035565b806104e581610392565b0390a4565b5f90565b90565b61050561050061050a926104ee565b61012c565b610129565b90565b6105367f9b779b17422d0df92223018b32b4d1fa46e071723d6817e2486d003becc55f006104f1565b90565b6105416104ea565b5061054a61050d565b90565b90565b60ff1690565b61056261056791610442565b610550565b90565b6105749054610556565b90565b61059d915f6105926105989361058b6102d8565b50826102ed565b01610337565b61056a565b90565b5f90565b6105ac6105a0565b503390565b90565b6105c06105c591610442565b6105b1565b90565b6105d290546105b4565b90565b60016105ed6105f3926105e66104ea565b505f6102ed565b016105c8565b9056fe60806040526004361015610015575b36610db457005b61001f5f3561013e565b806301ffc9a71461013957806307e2cea5146101345780632093beb91461012f578063248a9ca31461012a57806327fa35c3146101255780632f2ff15d1461012057806336568abe1461011b57806357bde44614610116578063677bd9ff146101115780636ed71ede1461010c57806375b238fc1461010757806376e004061461010257806391d14854146100fd578063a217fddf146100f8578063aec572f9146100f3578063d547741f146100ee578063eb44fdd3146100e95763fa744dd30361000e57610d7d565b610cee565b610be5565b610ba2565b6107bd565b61074c565b610712565b6105fd565b610599565b61052a565b6104d8565b6104a4565b610470565b6103d4565b61037d565b610312565b610262565b6101ca565b60e01c90565b60405190565b5f80fd5b5f80fd5b5f80fd5b63ffffffff60e01b1690565b61016b81610156565b0361017257565b5f80fd5b9050359061018382610162565b565b9060208282031261019e5761019b915f01610176565b90565b61014e565b151590565b6101b1906101a3565b9052565b91906101c8905f602085019401906101a8565b565b346101fa576101f66101e56101e0366004610185565b610dbc565b6101ed610144565b918291826101b5565b0390f35b61014a565b5f91031261020957565b61014e565b7f68e79a7bf1e0bc45d0a330c573bc367f9cf464fd326078812f301165fbda4ef190565b61023a61020e565b90565b90565b6102499061023d565b9052565b9190610260905f60208501940190610240565b565b34610292576102723660046101ff565b61028e61027d610232565b610285610144565b9182918261024d565b0390f35b61014a565b90565b6102a381610297565b036102aa57565b5f80fd5b905035906102bb8261029a565b565b6102c6816101a3565b036102cd57565b5f80fd5b905035906102de826102bd565b565b919060408382031261030857806102fc610305925f86016102ae565b936020016102d1565b90565b61014e565b5f0190565b6103266103203660046102e0565b9061134c565b61032e610144565b806103388161030d565b0390f35b6103458161023d565b0361034c57565b5f80fd5b9050359061035d8261033c565b565b9060208282031261037857610375915f01610350565b90565b61014e565b346103ad576103a961039861039336600461035f565b6113a2565b6103a0610144565b9182918261024d565b0390f35b61014a565b6103bb90610297565b9052565b91906103d2905f602085019401906103b2565b565b34610404576103e43660046101ff565b6104006103ef6113c7565b6103f7610144565b918291826103bf565b0390f35b61014a565b60018060a01b031690565b61041d90610409565b90565b61042981610414565b0361043057565b5f80fd5b9050359061044182610420565b565b919060408382031261046b578061045f610468925f8601610350565b93602001610434565b90565b61014e565b3461049f57610489610483366004610443565b90611407565b610491610144565b8061049b8161030d565b0390f35b61014a565b346104d3576104bd6104b7366004610443565b90611413565b6104c5610144565b806104cf8161030d565b0390f35b61014a565b34610507576104f16104eb3660046102e0565b90611898565b6104f9610144565b806105038161030d565b0390f35b61014a565b9060208282031261052557610522915f016102ae565b90565b61014e565b346105585761054261053d36600461050c565b612023565b61054a610144565b806105548161030d565b0390f35b61014a565b1c90565b90565b610574906008610579930261055d565b610561565b90565b906105879154610564565b90565b61059660015f9061057c565b90565b346105c9576105a93660046101ff565b6105c56105b461058a565b6105bc610144565b918291826103bf565b0390f35b61014a565b7fa49807205ce4d355092ef5a8a18f56e8913cf4a201fbe287825b095693c2177590565b6105fa6105ce565b90565b3461062d5761060d3660046101ff565b6106296106186105f2565b610620610144565b9182918261024d565b0390f35b61014a565b5f80fd5b5f80fd5b5f80fd5b909182601f830112156106785781359167ffffffffffffffff831161067357602001926001830284011161066e57565b61063a565b610636565b610632565b9160808383031261070d575f83013567ffffffffffffffff811161070857826106a791850161063e565b929093602081013567ffffffffffffffff811161070357826106ca91830161063e565b929093604083013567ffffffffffffffff81116106fe576106f0836106fb92860161063e565b9390946060016102ae565b90565b610152565b610152565b610152565b61014e565b346107475761073161072536600461067d565b95949094939193612569565b610739610144565b806107438161030d565b0390f35b61014a565b3461077d57610779610768610762366004610443565b90612590565b610770610144565b918291826101b5565b0390f35b61014a565b90565b5f1b90565b61079e6107996107a392610782565b610785565b61023d565b90565b6107af5f61078a565b90565b6107ba6107a6565b90565b346107ed576107cd3660046101ff565b6107e96107d86107b2565b6107e0610144565b9182918261024d565b0390f35b61014a565b919060408382031261081a578061080e610817925f86016102ae565b936020016102ae565b90565b61014e565b5190565b60209181520190565b60200190565b61083b90610297565b9052565b9061084c81602093610832565b0190565b60200190565b9061087361086d6108668461081f565b8093610823565b9261082c565b905f5b8181106108835750505090565b90919261089c610896600192865161083f565b94610850565b9101919091610876565b5190565b60209181520190565b60200190565b5190565b60209181520190565b90825f9392825e0152565b601f801991011690565b6108fa610903602093610908936108f1816108b9565b938480936108bd565b958691016108c6565b6108d1565b0190565b90610916916108db565b90565b60200190565b9061093361092c836108a6565b80926108aa565b9081610944602083028401946108b3565b925f915b83831061095757505050505090565b909192939460206109796109738385600195038752895161090c565b97610919565b9301930191939290610948565b5190565b60209181520190565b60200190565b634e487b7160e01b5f52602160045260245ffd5b600411156109b757565b610999565b906109c6826109ad565b565b6109d1906109bc565b90565b6109dd906109c8565b9052565b906109ee816020936109d4565b0190565b60200190565b90610a15610a0f610a0884610986565b809361098a565b92610993565b905f5b818110610a255750505090565b909192610a3e610a3860019286516109e1565b946109f2565b9101919091610a18565b5190565b60209181520190565b60200190565b610a64906101a3565b9052565b90610a7581602093610a5b565b0190565b60200190565b90610a9c610a96610a8f84610a48565b8093610a4c565b92610a55565b905f5b818110610aac5750505090565b909192610ac5610abf6001928651610a68565b94610a79565b9101919091610a9f565b999690610b8196610b478c610b9f9e9c98610b39610b7299610b2b610b909f9a610b1d610b649b610b0f610b569b6101608a01908a82035f8c0152610856565b9088820360208a015261091f565b90868203604088015261091f565b90848203606086015261091f565b916080818403910152610856565b908c60a08184039101526109f8565b908a820360c08c0152610856565b9088820360e08a0152610856565b90868203610100880152610856565b90848203610120860152610a7f565b91610140818403910152610a7f565b90565b34610be057610bdc610bbe610bb83660046107f2565b906129ab565b97610bd39b999b979197969296959395610144565b9b8c9b8c610acf565b0390f35b61014a565b34610c1457610bfe610bf8366004610443565b90612df5565b610c06610144565b80610c108161030d565b0390f35b61014a565b60209181520190565b610c41610c4a602093610c4f93610c38816108b9565b93848093610c19565b958691016108c6565b6108d1565b0190565b610c5c906109c8565b9052565b9694929998979593919061012088018881035f8a0152610c7f91610c22565b8781036020890152610c9091610c22565b9860408701610c9e916103b2565b60608601610cab91610c53565b60808501610cb8916103b2565b60a08401610cc5916103b2565b60c08301610cd2916103b2565b60e08201610cdf916101a8565b61010001610cec916101a8565b565b34610d2857610d24610d09610d0436600461050c565b612e0a565b95610d1b999799959195949294610144565b998a998a610c60565b0390f35b61014a565b9190604083820312610d555780610d49610d52925f86016102ae565b93602001610434565b90565b61014e565b916020610d7b929493610d7460408201965f8301906103b2565b01906103b2565b565b34610daf57610d96610d90366004610d2d565b90612eec565b90610dab610da2610144565b92839283610d5a565b0390f35b61014a565b5f80fd5b5f90565b610dc4610db8565b5080610ddf610dd9637965db0b60e01b610156565b91610156565b14908115610dec575b5090565b610df69150612f42565b5f610de8565b90610e0e91610e09612f94565b6111a0565b610e16612fec565b565b5f1c90565b610e29610e2e91610e18565b610561565b90565b610e3b9054610e1d565b90565b5f7f6d61726b6574206e6f7420666f756e6400000000000000000000000000000000910152565b610e726010602092610c19565b610e7b81610e3e565b0190565b610e949060208101905f818303910152610e65565b90565b15610e9e57565b610ea6610144565b62461bcd60e51b815280610ebc60048201610e7f565b0390fd5b90565b610ed7610ed2610edc92610297565b610ec0565b610297565b90565b90610ee990610ec3565b5f5260205260405f2090565b90565b5f7f656e646564000000000000000000000000000000000000000000000000000000910152565b610f2c6005602092610c19565b610f3581610ef8565b0190565b610f4e9060208101905f818303910152610f1f565b90565b15610f5857565b610f60610144565b62461bcd60e51b815280610f7660048201610f39565b0390fd5b60ff1690565b610f8c610f9191610e18565b610f7a565b90565b610f9e9054610f80565b90565b5f7f7265736f6c766564000000000000000000000000000000000000000000000000910152565b610fd56008602092610c19565b610fde81610fa1565b0190565b610ff79060208101905f818303910152610fc8565b90565b1561100157565b611009610144565b62461bcd60e51b81528061101f60048201610fe2565b0390fd5b61103761103261103c92610782565b610ec0565b610297565b90565b5f7f6e656564206d6f72652045544800000000000000000000000000000000000000910152565b611073600d602092610c19565b61107c8161103f565b0190565b6110959060208101905f818303910152611066565b90565b1561109f57565b6110a7610144565b62461bcd60e51b8152806110bd60048201611080565b0390fd5b6110d56110d06110da92610409565b610ec0565b610409565b90565b6110e6906110c1565b90565b6110f2906110dd565b90565b906110ff906110e9565b5f5260205260405f2090565b634e487b7160e01b5f52601160045260245ffd5b61112e61113491939293610297565b92610297565b820180921161113f57565b61110b565b906111505f1991610785565b9181191691161790565b90565b9061117261116d61117992610ec3565b61115a565b8254611144565b9055565b91602061119e92949361119760408201965f8301906101a8565b01906103b2565b565b6111c5816111bf6111b96111b46001610e31565b610297565b91610297565b10610e97565b6112ab6111dc6111d760028490610edf565b610ef5565b611203426111fd6111f76111f260038601610e31565b610297565b91610297565b10610f51565b61122061121b61121560088401610f94565b156101a3565b610ffa565b61123c346112366112305f611023565b91610297565b11611098565b835f146112fd5761126d346112676112586009850133906110f5565b9161126283610e31565b61111f565b9061115d565b61128d34611287600584019161128283610e31565b61111f565b9061115d565b5b6112a56007349201916112a083610e31565b61111f565b9061115d565b90339091346112e36112dd7f4af71b021e799c62c158bd54636ca8da2fa26115a21a2dc6efe486ec104fd15f93610ec3565b936110e9565b936112f86112ef610144565b9283928361117d565b0390a3565b61132734611321611312600a850133906110f5565b9161131c83610e31565b61111f565b9061115d565b61134734611341600684019161133c83610e31565b61111f565b9061115d565b61128e565b9061135691610dfc565b565b5f90565b6113659061023d565b90565b906113729061135c565b5f5260205260405f2090565b90565b61138d61139291610e18565b61137e565b90565b61139f9054611381565b90565b60016113ba6113c0926113b3611358565b505f611368565b01611395565b90565b5f90565b6113cf6113c3565b506113da6001610e31565b90565b906113f8916113f36113ee826113a2565b613010565b6113fa565b565b9061140491613024565b50565b90611411916113dd565b565b908061142e6114286114236130d3565b610414565b91610414565b0361143f5761143c916130e0565b50565b5f63334bd91960e11b8152806114576004820161030d565b0390fd5b906114759161147061146b61020e565b613010565b611668565b565b5f7f6e6f7420656e6465640000000000000000000000000000000000000000000000910152565b6114ab6009602092610c19565b6114b481611477565b0190565b6114cd9060208101905f81830391015261149e565b90565b156114d757565b6114df610144565b62461bcd60e51b8152806114f5600482016114b8565b0390fd5b5f7f616c726561647900000000000000000000000000000000000000000000000000910152565b61152d6007602092610c19565b611536816114f9565b0190565b61154f9060208101905f818303910152611520565b90565b1561155957565b611561610144565b62461bcd60e51b8152806115776004820161153a565b0390fd5b9061158760ff91610785565b9181191691161790565b61159a906109bc565b90565b90565b906115b56115b06115bc92611591565b61159d565b825461157b565b9055565b60081b90565b906115d361ff00916115c0565b9181191691161790565b6115e6906101a3565b90565b90565b906116016115fc611608926115dd565b6115e9565b82546115c6565b9055565b9061162161161c611628926115dd565b6115e9565b825461157b565b9055565b60ff1690565b61163e61164391610e18565b61162c565b90565b6116509054611632565b90565b9190611666905f60208501940190610c53565b565b600461176d916116938161168d6116876116826001610e31565b610297565b91610297565b10610e97565b6116a76116a260028390610edf565b610ef5565b936116d0426116c96116c36116be60038a01610e31565b610297565b91610297565b10156114d0565b6116ed6116e86116e260088801610f94565b156101a3565b611552565b8080611873575b5f146117b257506117096001600886016115ec565b61171660038386016115a0565b806117417f3d2a04f53164bedf9a8a46353305d6b2d2261410406df3b41f99ce6489dc003c91610ec3565b9061174a610144565b806117548161030d565b0390a25b61176660016008860161160c565b9201611646565b906117ad61179b7f739f283563fb51ab6b89ee95d937b2e63a6cfcb83c385dbebb629f9d97bd43e692610ec3565b926117a4610144565b91829182611653565b0390a2565b6117bc81156101a3565b8061184e575b5f1461182b57506117d76001600886016115ec565b6117e460038386016115a0565b8061180f7f3d2a04f53164bedf9a8a46353305d6b2d2261410406df3b41f99ce6489dc003c91610ec3565b90611818610144565b806118228161030d565b0390a25b611758565b5f146118445761183f60015b8386016115a0565b611826565b61183f6002611837565b5061185b60068601610e31565b61186d6118675f611023565b91610297565b146117c2565b5061188060058601610e31565b61189261188c5f611023565b91610297565b146116f4565b906118a29161145b565b565b6118b5906118b0612f94565b611d37565b6118bd612fec565b565b5f7f6e6f74207265736f6c7665640000000000000000000000000000000000000000910152565b6118f3600c602092610c19565b6118fc816118bf565b0190565b6119159060208101905f8183039101526118e6565b90565b1561191f57565b611927610144565b62461bcd60e51b81528061193d60048201611900565b0390fd5b60081c90565b61195361195891611941565b610f7a565b90565b6119659054611947565b90565b5f7f6e6f206e6f000000000000000000000000000000000000000000000000000000910152565b61199c6005602092610c19565b6119a581611968565b0190565b6119be9060208101905f81830391015261198f565b90565b156119c857565b6119d0610144565b62461bcd60e51b8152806119e6600482016119a9565b0390fd5b6119f96119ff91939293610297565b92610297565b91611a0b838202610297565b928184041490151715611a1a57565b61110b565b634e487b7160e01b5f52601260045260245ffd5b611a3f611a4591610297565b91610297565b908115611a50570490565b611a1f565b5f7f6e6f207965730000000000000000000000000000000000000000000000000000910152565b611a896006602092610c19565b611a9281611a55565b0190565b611aab9060208101905f818303910152611a7c565b90565b15611ab557565b611abd610144565b62461bcd60e51b815280611ad360048201611a96565b0390fd5b5f7f6e6f7468696e6700000000000000000000000000000000000000000000000000910152565b611b0b6007602092610c19565b611b1481611ad7565b0190565b611b2d9060208101905f818303910152611afe565b90565b15611b3757565b611b3f610144565b62461bcd60e51b815280611b5560048201611b18565b0390fd5b5f7f7a65726f207061796f7574000000000000000000000000000000000000000000910152565b611b8d600b602092610c19565b611b9681611b59565b0190565b611baf9060208101905f818303910152611b80565b90565b15611bb957565b611bc1610144565b62461bcd60e51b815280611bd760048201611b9a565b0390fd5b905090565b611beb5f8092611bdb565b0190565b611bf890611be0565b90565b634e487b7160e01b5f52604160045260245ffd5b90611c19906108d1565b810190811067ffffffffffffffff821117611c3357604052565b611bfb565b90611c4b611c44610144565b9283611c0f565b565b67ffffffffffffffff8111611c6b57611c676020916108d1565b0190565b611bfb565b90611c82611c7d83611c4d565b611c38565b918252565b606090565b3d5f14611ca757611c9c3d611c70565b903d5f602084013e5b565b611caf611c87565b90611ca5565b5f7f7472616e73666572206661696c65640000000000000000000000000000000000910152565b611ce9600f602092610c19565b611cf281611cb5565b0190565b611d0b9060208101905f818303910152611cdc565b90565b15611d1557565b611d1d610144565b62461bcd60e51b815280611d3360048201611cf6565b0390fd5b611d5c81611d56611d50611d4b6001610e31565b610297565b91610297565b10610e97565b611d70611d6b60028390610edf565b610ef5565b90611d85611d8060088401610f94565b611918565b611d8d6113c3565b611d996008840161195b565b5f14611eca5750611e30611dd8611dbc611db76009860133906110f5565b610e31565b611dd2611dcd600a870133906110f5565b610e31565b9061111f565b92611df584611def611de95f611023565b91610297565b11611b30565b611e14611e015f611023565b611e0f6009840133906110f5565b61115d565b611e2b600a611e225f611023565b920133906110f5565b61115d565b5b611e4d82611e47611e415f611023565b91610297565b11611bb2565b611e795f803385611e5c610144565b9081611e6781611bef565b03925af1611e73611c8c565b50611d0e565b90339091611ec5611eb3611ead7f4ec90e965519d92681267467f775ada5bd214aa92c0dc93d90a5e880ce9ed02693610ec3565b936110e9565b93611ebc610144565b918291826103bf565b0390a3565b611ed660048401611646565b611ee9611ee360016109bc565b916109bc565b145f14611f735750611f6d611f50611f3e611f10611f0b6009870133906110f5565b610e31565b611f2c81611f26611f205f611023565b91610297565b11611aae565b611f3860078701610e31565b906119ea565b611f4a60058601610e31565b90611a33565b92611f686009611f5f5f611023565b920133906110f5565b61115d565b5b611e31565b91611f8060048201611646565b611f93611f8d60026109bc565b916109bc565b14611f9f575b50611f6e565b915061201d612000611fee611fc0611fbb600a870133906110f5565b610e31565b611fdc81611fd6611fd05f611023565b91610297565b116119c1565b611fe860078701610e31565b906119ea565b611ffa60068601610e31565b90611a33565b92612018600a61200f5f611023565b920133906110f5565b61115d565b5f611f99565b61202c906118a4565b565b9061204d9695949392916120486120436105ce565b613010565b612437565b565b91565b5090565b90565b61206d61206861207292612056565b610ec0565b610297565b90565b5f7f626164207175657374696f6e0000000000000000000000000000000000000000910152565b6120a9600c602092610c19565b6120b281612075565b0190565b6120cb9060208101905f81830391015261209c565b90565b156120d557565b6120dd610144565b62461bcd60e51b8152806120f3600482016120b6565b0390fd5b90565b61210e612109612113926120f7565b610ec0565b610297565b90565b5f7f6261642074696d65000000000000000000000000000000000000000000000000910152565b61214a6008602092610c19565b61215381612116565b0190565b61216c9060208101905f81830391015261213d565b90565b1561217657565b61217e610144565b62461bcd60e51b81528061219460048201612157565b0390fd5b5090565b634e487b7160e01b5f52602260045260245ffd5b90600160028304921680156121d0575b60208310146121cb57565b61219c565b91607f16916121c0565b5f5260205f2090565b601f602091010490565b1b90565b9190600861220c9102916122065f19846121ed565b926121ed565b9181191691161790565b919061222c61222761223493610ec3565b61115a565b9083546121f1565b9055565b61224a916122446113c3565b91612216565b565b5b818110612258575050565b806122655f600193612238565b0161224d565b9190601f811161227b575b505050565b6122876122ac936121da565b906020612293846121e3565b830193106122b4575b6122a5906121e3565b019061224c565b5f8080612276565b91506122a58192905061229c565b906122d2905f199060080261055d565b191690565b816122e1916122c2565b906002021790565b916122f49082612198565b9067ffffffffffffffff82116123b3576123188261231285546121b0565b8561226b565b5f90601f831160011461234b5791809161233a935f9261233f575b50506122d7565b90555b565b90915001355f80612333565b601f1983169161235a856121da565b925f5b81811061239b57509160029391856001969410612381575b5050500201905561233d565b612391910135601f8416906122c2565b90555f8080612375565b9193602060018192878701358155019501920161235d565b611bfb565b906123c392916122e9565b565b90825f939282370152565b91906123ea816123e3816123ef95610c19565b80956123c5565b6108d1565b0190565b9392906124116020916124199460408801918883035f8a01526123d0565b9401906103b2565b565b61242490610297565b5f1981146124325760010190565b61110b565b946124e49196946124db6124fb9561247661245c6124568b8d9061204f565b90612052565b61246f6124696005612059565b91610297565b10156120ce565b6124a6886124a061249a6124954261248f610e106120fa565b9061111f565b610297565b91610297565b1161216f565b6124c36124be60026124b86001610e31565b90610edf565b610ef5565b956124d28a8c905f8a016123b8565b600187016123b8565b600284016123b8565b6124f1836003830161115d565b60045f91016115a0565b6125056001610e31565b919290926125486125367f2d1e9ad45dbe8e898e0374deebf2a661b2ae7c1855d2a29507d584c35d287c7594610ec3565b9461253f610144565b938493846123f3565b0390a261256761256061255b6001610e31565b61241b565b600161115d565b565b9061257896959493929161202e565b565b90612584906110e9565b5f5260205260405f2090565b6125b6915f6125ab6125b1936125a4610db8565b5082611368565b0161257a565b610f94565b90565b606090565b606090565b606090565b606090565b67ffffffffffffffff81116125e55760208091020190565b611bfb565b906125fc6125f7836125cd565b611c38565b918252565b369037565b9061262b612613836125ea565b9260208061262186936125cd565b9201910390612601565b565b67ffffffffffffffff81116126455760208091020190565b611bfb565b9061265c6126578361262d565b611c38565b918252565b606090565b5f5b82811061267457505050565b60209061267f612661565b8184015201612668565b906126ae6126968361264a565b926020806126a4869361262d565b9201910390612666565b565b67ffffffffffffffff81116126c85760208091020190565b611bfb565b906126df6126da836126b0565b611c38565b918252565b369037565b9061270e6126f6836126cd565b9260208061270486936126b0565b92019103906126e4565b565b67ffffffffffffffff81116127285760208091020190565b611bfb565b9061273f61273a83612710565b611c38565b918252565b369037565b9061276e6127568361272d565b926020806127648693612710565b9201910390612744565b565b5f7f496e76616c696420737461727400000000000000000000000000000000000000910152565b6127a4600d602092610c19565b6127ad81612770565b0190565b6127c69060208101905f818303910152612797565b90565b156127d057565b6127d8610144565b62461bcd60e51b8152806127ee600482016127b1565b0390fd5b61280161280791939293610297565b92610297565b820391821161281257565b61110b565b60016128239101610297565b90565b634e487b7160e01b5f52603260045260245ffd5b906128448261081f565b811015612855576020809102010190565b612826565b9061286490610297565b9052565b90612872826108a6565b811015612883576020809102010190565b612826565b905f92918054906128a261289b836121b0565b80946108bd565b916001811690815f146128f957506001146128bd575b505050565b6128ca91929394506121da565b915f925b8184106128e157505001905f80806128b8565b600181602092959395548486015201910192906128ce565b92949550505060ff19168252151560200201905f80806128b8565b9061291e91612888565b90565b9061294161293a92612931610144565b93848092612914565b0383611c0f565b565b61294c90612921565b90565b9061295982610986565b81101561296a576020809102010190565b612826565b90612979906109bc565b9052565b9061298782610a48565b811015612998576020809102010190565b612826565b906129a7906101a3565b9052565b91906129b56125b9565b506129be6125be565b506129c76125be565b506129d06125be565b506129d96125b9565b506129e26125c3565b506129eb6125b9565b506129f46125b9565b506129fd6125b9565b50612a066125c8565b50612a0f6125c8565b50612a1a6001610e31565b612a2c612a265f611023565b91610297565b14612cea57612a6090612a5a84612a54612a4e612a496001610e31565b610297565b91610297565b106127c9565b8361111f565b80612a7c612a76612a716001610e31565b610297565b91610297565b11612cda575b612a8d9083906127f2565b91612a9783612606565b90612aa184612689565b612aaa85612689565b612ab386612689565b612abc87612606565b612ac5886126e9565b90612acf89612606565b92612ad98a612606565b94612ae38b612606565b96612aed8c612749565b98612af78d612749565b9b8d612b025f611023565b905b612b17612b118392610297565b91610297565b1015612cc7578d8d8483612b2a9161111f565b90600282612b3791610edf565b612b4090610ef5565b919084612b4c9161283a565b90612b569161285a565b805f0186908490612b6690612943565b612b708284612868565b52612b7a91612868565b51508060010187908490612b8d90612943565b612b978284612868565b52612ba191612868565b51508060020188908490612bb490612943565b612bbe8284612868565b52612bc891612868565b515080600301612bd790610e31565b8984612be29161283a565b90612bec9161285a565b80600401612bf990611646565b8a84612c049161294f565b90612c0e9161296f565b80600501612c1b90610e31565b8b84612c269161283a565b90612c309161285a565b80600601612c3d90610e31565b8c84612c489161283a565b90612c529161285a565b80600701612c5f90610e31565b8d84612c6a9161283a565b90612c749161285a565b8d81600801612c8290610f94565b9084612c8d9161297d565b90612c979161299d565b600801612ca39061195b565b9082612cae9161297d565b90612cb89161299d565b612cc190612817565b8e612b04565b50919b929a9c5050979197969296959395565b50612ce56001610e31565b612a82565b509050612cfe612cf95f611023565b612606565b90612d10612d0b5f611023565b612689565b91612d22612d1d5f611023565b612689565b92612d34612d2f5f611023565b612689565b92612d46612d415f611023565b612606565b92612d58612d535f611023565b6126e9565b92612d6a612d655f611023565b612606565b92612d7c612d775f611023565b612606565b92612d8e612d895f611023565b612606565b92612da0612d9b5f611023565b612749565b92612db2612dad5f611023565b612749565b92919a9998979695949392919a99989796959493929190565b90612de691612de1612ddc826113a2565b613010565b612de8565b565b90612df2916130e0565b50565b90612dff91612dcb565b565b606090565b5f90565b612e69612e6e91612e19612e01565b50612e22612e01565b50612e2b6113c3565b50612e34612e06565b50612e3d6113c3565b50612e466113c3565b50612e4f6113c3565b50612e58610db8565b50612e61610db8565b506002610edf565b610ef5565b905f8201906001830192612e8460038201610e31565b92612e9160048301611646565b92612e9e60058401610e31565b92612eab60068201610e31565b92612eb860078301610e31565b92612ee2612edc612ed66008612ecf818801610f94565b960161195b565b93612943565b99612943565b9796959493929190565b612f3a612f1a612f15612f3f93959495612f046113c3565b50612f0d6113c3565b506002610edf565b610ef5565b93600a612f33612f2e6009880184906110f5565b610e31565b95016110f5565b610e31565b90565b612f4a610db8565b50612f64612f5e6301ffc9a760e01b610156565b91610156565b1490565b90565b612f7f612f7a612f8492612f68565b610ec0565b610297565b90565b612f916002612f6b565b90565b612f9c613181565b612fbe612fa7612f87565b5f612fb8612fb36131f6565b61320a565b0161115d565b565b90565b612fd7612fd2612fdc92612fc0565b610ec0565b610297565b90565b612fe96001612fc3565b90565b61300e612ff7612fdf565b5f6130086130036131f6565b61320a565b0161115d565b565b6130229061301c6130d3565b9061323d565b565b61302c610db8565b5061304161303b828490612590565b156101a3565b5f146130c95761306860016130635f61305b818690611368565b01859061257a565b61160c565b906130716130d3565b906130ae6130a86130a27f2f8788117e7eff1d82e926ec794901d17c78024a50270940304540a733656f0d9561135c565b926110e9565b926110e9565b926130b7610144565b806130c18161030d565b0390a4600190565b50505f90565b5f90565b6130db6130cf565b503390565b6130e8610db8565b506130f4818390612590565b5f1461317b5761311a5f6131155f61310d818690611368565b01859061257a565b61160c565b906131236130d3565b9061316061315a6131547ff6391f5c32d9c69d2a47ea670b442974b53935d1edc7fd64eb21e047a839171b9561135c565b926110e9565b926110e9565b92613169610144565b806131738161030d565b0390a4600190565b50505f90565b613189613278565b61318f57565b5f633ee5aeb560e01b8152806131a76004820161030d565b0390fd5b90565b6131c26131bd6131c7926131ab565b610785565b61023d565b90565b6131f37f9b779b17422d0df92223018b32b4d1fa46e071723d6817e2486d003becc55f006131ae565b90565b6131fe611358565b506132076131ca565b90565b90565b61321690610414565b9052565b91602061323b92949361323460408201965f83019061320d565b0190610240565b565b9061325261324c838390612590565b156101a3565b61325a575050565b6132745f92839263e2517d3f60e01b84526004840161321a565b0390fd5b613280610db8565b5061329b5f6132956132906131f6565b61320a565b01610e31565b6132b46132ae6132a9612f87565b610297565b91610297565b149056fea2646970667358221220f43e61f31d621e74534ca207e0d37adab4302692b98b84dc864cf3e1d3512b9664736f6c634300081e0033","linkReferences":{}},"methodIdentifiers":{"ADMIN_ROLE()":"75b238fc","DEFAULT_ADMIN_ROLE()":"a217fddf","ORACLE_ROLE()":"07e2cea5","claimWinnings(uint256)":"677bd9ff","createMarket(string,string,string,uint256)":"76e00406","getMarket(uint256)":"eb44fdd3","getMarketsCount()":"27fa35c3","getMarketsPaginated(uint256,uint256)":"aec572f9","getRoleAdmin(bytes32)":"248a9ca3","getUserBets(uint256,address)":"fa744dd3","grantRole(bytes32,address)":"2f2ff15d","hasRole(bytes32,address)":"91d14854","makeBet(uint256,bool)":"2093beb9","marketId()":"6ed71ede","renounceRole(bytes32,address)":"36568abe","resolveMarket(uint256,bool)":"57bde446","revokeRole(bytes32,address)":"d547741f","supportsInterface(bytes4)":"01ffc9a7"},"id":7}